{
  "contractName": "Lottery",
  "abi": [
    {
      "inputs": [],
      "stateMutability": "nonpayable",
      "type": "constructor"
    },
    {
      "inputs": [
        {
          "internalType": "uint256",
          "name": "",
          "type": "uint256"
        }
      ],
      "name": "lotteryHistory",
      "outputs": [
        {
          "internalType": "address payable",
          "name": "",
          "type": "address"
        }
      ],
      "stateMutability": "view",
      "type": "function",
      "constant": true
    },
    {
      "inputs": [],
      "name": "lotteryId",
      "outputs": [
        {
          "internalType": "uint256",
          "name": "",
          "type": "uint256"
        }
      ],
      "stateMutability": "view",
      "type": "function",
      "constant": true
    },
    {
      "inputs": [],
      "name": "owner",
      "outputs": [
        {
          "internalType": "address",
          "name": "",
          "type": "address"
        }
      ],
      "stateMutability": "view",
      "type": "function",
      "constant": true
    },
    {
      "inputs": [
        {
          "internalType": "address",
          "name": "",
          "type": "address"
        }
      ],
      "name": "playerCheck",
      "outputs": [
        {
          "internalType": "bool",
          "name": "",
          "type": "bool"
        }
      ],
      "stateMutability": "view",
      "type": "function",
      "constant": true
    },
    {
      "inputs": [
        {
          "internalType": "uint256",
          "name": "",
          "type": "uint256"
        }
      ],
      "name": "players",
      "outputs": [
        {
          "internalType": "address payable",
          "name": "",
          "type": "address"
        }
      ],
      "stateMutability": "view",
      "type": "function",
      "constant": true
    },
    {
      "inputs": [
        {
          "internalType": "uint256",
          "name": "_lotteryId",
          "type": "uint256"
        }
      ],
      "name": "getWinnerByHistory",
      "outputs": [
        {
          "internalType": "address payable",
          "name": "",
          "type": "address"
        }
      ],
      "stateMutability": "view",
      "type": "function",
      "constant": true
    },
    {
      "inputs": [],
      "name": "enter",
      "outputs": [],
      "stateMutability": "payable",
      "type": "function",
      "payable": true
    },
    {
      "inputs": [],
      "name": "getBalance",
      "outputs": [
        {
          "internalType": "uint256",
          "name": "",
          "type": "uint256"
        }
      ],
      "stateMutability": "view",
      "type": "function",
      "constant": true
    },
    {
      "inputs": [],
      "name": "getPlayers",
      "outputs": [
        {
          "internalType": "address payable[]",
          "name": "",
          "type": "address[]"
        }
      ],
      "stateMutability": "view",
      "type": "function",
      "constant": true
    },
    {
      "inputs": [],
      "name": "getRandomNumber",
      "outputs": [
        {
          "internalType": "uint256",
          "name": "",
          "type": "uint256"
        }
      ],
      "stateMutability": "view",
      "type": "function",
      "constant": true
    },
    {
      "inputs": [],
      "name": "pickWinner",
      "outputs": [],
      "stateMutability": "nonpayable",
      "type": "function"
    }
  ],
  "bytecode": "0x608060405234801561001057600080fd5b50336000806101000a81548173ffffffffffffffffffffffffffffffffffffffff021916908373ffffffffffffffffffffffffffffffffffffffff160217905550610dba806100606000396000f3fe60806040526004361061009c5760003560e01c80638da5cb5b116100645780638da5cb5b14610188578063ba9f9112146101b3578063dbdff2c1146101f0578063e580f47b1461021b578063e97dcb6214610246578063f71d96cb146102505761009c565b806312065fe0146100a15780631fbc4566146100cc5780635d495aea146101095780636d6fe230146101205780638b5b9ccc1461015d575b600080fd5b3480156100ad57600080fd5b506100b661028d565b6040516100c39190610896565b60405180910390f35b3480156100d857600080fd5b506100f360048036038101906100ee91906108e2565b610295565b6040516101009190610950565b60405180910390f35b34801561011557600080fd5b5061011e6102d2565b005b34801561012c57600080fd5b50610147600480360381019061014291906108e2565b6104d8565b6040516101549190610950565b60405180910390f35b34801561016957600080fd5b5061017261050b565b60405161017f9190610a29565b60405180910390f35b34801561019457600080fd5b5061019d610599565b6040516101aa9190610a6c565b60405180910390f35b3480156101bf57600080fd5b506101da60048036038101906101d59190610ab3565b6105bd565b6040516101e79190610afb565b60405180910390f35b3480156101fc57600080fd5b506102056105dd565b6040516102129190610896565b60405180910390f35b34801561022757600080fd5b50610230610631565b60405161023d9190610896565b60405180910390f35b61024e610637565b005b34801561025c57600080fd5b50610277600480360381019061027291906108e2565b610797565b6040516102849190610950565b60405180910390f35b600047905090565b60006003600083815260200190815260200160002060009054906101000a900473ffffffffffffffffffffffffffffffffffffffff169050919050565b60008054906101000a900473ffffffffffffffffffffffffffffffffffffffff1673ffffffffffffffffffffffffffffffffffffffff163373ffffffffffffffffffffffffffffffffffffffff161461032a57600080fd5b600060018054905061033a6105dd565b6103449190610b45565b90506001818154811061035a57610359610b76565b5b9060005260206000200160009054906101000a900473ffffffffffffffffffffffffffffffffffffffff1673ffffffffffffffffffffffffffffffffffffffff166108fc479081150290604051600060405180830381858888f193505050501580156103ca573d6000803e3d6000fd5b50600181815481106103df576103de610b76565b5b9060005260206000200160009054906101000a900473ffffffffffffffffffffffffffffffffffffffff1660036000600254815260200190815260200160002060006101000a81548173ffffffffffffffffffffffffffffffffffffffff021916908373ffffffffffffffffffffffffffffffffffffffff1602179055506002600081548092919061047090610bd4565b9190505550600067ffffffffffffffff8111156104905761048f610c1d565b5b6040519080825280602002602001820160405280156104be5781602001602082028036833780820191505090505b50600190805190602001906104d49291906107d6565b5050565b60036020528060005260406000206000915054906101000a900473ffffffffffffffffffffffffffffffffffffffff1681565b6060600180548060200260200160405190810160405280929190818152602001828054801561058f57602002820191906000526020600020905b8160009054906101000a900473ffffffffffffffffffffffffffffffffffffffff1673ffffffffffffffffffffffffffffffffffffffff1681526020019060010190808311610545575b5050505050905090565b60008054906101000a900473ffffffffffffffffffffffffffffffffffffffff1681565b60046020528060005260406000206000915054906101000a900460ff1681565b60008060009054906101000a900473ffffffffffffffffffffffffffffffffffffffff1642604051602001610613929190610cb5565b6040516020818303038152906040528051906020012060001c905090565b60025481565b67016345785d8a0000341461064b57600080fd5b60008054906101000a900473ffffffffffffffffffffffffffffffffffffffff1673ffffffffffffffffffffffffffffffffffffffff163373ffffffffffffffffffffffffffffffffffffffff1614156106da576040517f08c379a00000000000000000000000000000000000000000000000000000000081526004016106d190610d64565b60405180910390fd5b6001339080600181540180825580915050600190039060005260206000200160009091909190916101000a81548173ffffffffffffffffffffffffffffffffffffffff021916908373ffffffffffffffffffffffffffffffffffffffff1602179055506001600460003373ffffffffffffffffffffffffffffffffffffffff1673ffffffffffffffffffffffffffffffffffffffff16815260200190815260200160002060006101000a81548160ff021916908315150217905550565b600181815481106107a757600080fd5b906000526020600020016000915054906101000a900473ffffffffffffffffffffffffffffffffffffffff1681565b82805482825590600052602060002090810192821561084f579160200282015b8281111561084e5782518260006101000a81548173ffffffffffffffffffffffffffffffffffffffff021916908373ffffffffffffffffffffffffffffffffffffffff160217905550916020019190600101906107f6565b5b50905061085c9190610860565b5090565b5b80821115610879576000816000905550600101610861565b5090565b6000819050919050565b6108908161087d565b82525050565b60006020820190506108ab6000830184610887565b92915050565b600080fd5b6108bf8161087d565b81146108ca57600080fd5b50565b6000813590506108dc816108b6565b92915050565b6000602082840312156108f8576108f76108b1565b5b6000610906848285016108cd565b91505092915050565b600073ffffffffffffffffffffffffffffffffffffffff82169050919050565b600061093a8261090f565b9050919050565b61094a8161092f565b82525050565b60006020820190506109656000830184610941565b92915050565b600081519050919050565b600082825260208201905092915050565b6000819050602082019050919050565b6109a08161092f565b82525050565b60006109b28383610997565b60208301905092915050565b6000602082019050919050565b60006109d68261096b565b6109e08185610976565b93506109eb83610987565b8060005b83811015610a1c578151610a0388826109a6565b9750610a0e836109be565b9250506001810190506109ef565b5085935050505092915050565b60006020820190508181036000830152610a4381846109cb565b905092915050565b6000610a568261090f565b9050919050565b610a6681610a4b565b82525050565b6000602082019050610a816000830184610a5d565b92915050565b610a9081610a4b565b8114610a9b57600080fd5b50565b600081359050610aad81610a87565b92915050565b600060208284031215610ac957610ac86108b1565b5b6000610ad784828501610a9e565b91505092915050565b60008115159050919050565b610af581610ae0565b82525050565b6000602082019050610b106000830184610aec565b92915050565b7f4e487b7100000000000000000000000000000000000000000000000000000000600052601260045260246000fd5b6000610b508261087d565b9150610b5b8361087d565b925082610b6b57610b6a610b16565b5b828206905092915050565b7f4e487b7100000000000000000000000000000000000000000000000000000000600052603260045260246000fd5b7f4e487b7100000000000000000000000000000000000000000000000000000000600052601160045260246000fd5b6000610bdf8261087d565b91507fffffffffffffffffffffffffffffffffffffffffffffffffffffffffffffffff821415610c1257610c11610ba5565b5b600182019050919050565b7f4e487b7100000000000000000000000000000000000000000000000000000000600052604160045260246000fd5b60008160601b9050919050565b6000610c6482610c4c565b9050919050565b6000610c7682610c59565b9050919050565b610c8e610c8982610a4b565b610c6b565b82525050565b6000819050919050565b610caf610caa8261087d565b610c94565b82525050565b6000610cc18285610c7d565b601482019150610cd18284610c9e565b6020820191508190509392505050565b600082825260208201905092915050565b7f4f776e65722043616e6e6f74205061727469637061746520696e20746865204c60008201527f6f74746572792000000000000000000000000000000000000000000000000000602082015250565b6000610d4e602783610ce1565b9150610d5982610cf2565b604082019050919050565b60006020820190508181036000830152610d7d81610d41565b905091905056fea2646970667358221220ae72333393d40e60c5a3645a8f64a173e25f73d577acc847f014f2a709fd9c9364736f6c634300080b0033",
  "immutableReferences": {},
  "source": "// SPDX-License-Identifier: MIT\r\npragma solidity ^0.8.11;\r\n\r\ncontract Lottery{\r\n    address public owner;\r\n    address payable[] public players;\r\n    uint public lotteryId;\r\n    mapping(uint => address payable) public lotteryHistory; \r\n    mapping(address => bool ) public playerCheck;\r\n\r\n\r\n    constructor(){\r\n        owner=msg.sender;\r\n    }\r\n\r\n    function getWinnerByHistory(uint _lotteryId) public view returns(address payable) {\r\n        return lotteryHistory[_lotteryId];\r\n    }\r\n\r\n    function enter() public payable {\r\n        require(msg.value == 0.1 ether);\r\n        require(msg.sender != owner, \"Owner Cannot Particpate in the Lottery \");\r\n        players.push(payable(msg.sender));\r\n        playerCheck[msg.sender]=true;\r\n    }\r\n\r\n    function getBalance() public view returns (uint){\r\n        return address(this).balance;\r\n    }\r\n\r\n    function getPlayers() public view returns (address payable[] memory){\r\n        return players;\r\n    }\r\n\r\n    function getRandomNumber() public view returns (uint){\r\n        return uint(keccak256(abi.encodePacked(owner, block.timestamp)));\r\n    }\r\n\r\n    function pickWinner() public onlyOwner {\r\n        uint index = getRandomNumber() % players.length;\r\n        players[index].transfer(address(this).balance);\r\n        lotteryHistory[lotteryId]= players[index];\r\n        lotteryId++;\r\n\r\n        // reset the state of the  contract //\r\n        players = new address payable[](0);\r\n    }\r\n\r\n    modifier onlyOwner(){\r\n        require(msg.sender == owner);\r\n        _;\r\n    }\r\n}",
  "sourcePath": "C:\\Coding\\Blockchain\\dApps\\lotterySystem\\contracts\\Lottery.sol",
  "compiler": {
    "name": "solc",
    "version": "0.8.11+commit.d7f03943.Emscripten.clang"
  },
  "schemaVersion": "3.4.7",
  "updatedAt": "2022-06-17T16:47:46.580Z",
  "networkType": "ethereum",
  "devdoc": {
    "kind": "dev",
    "methods": {},
    "version": 1
  },
  "userdoc": {
    "kind": "user",
    "methods": {},
    "version": 1
  }
}